S014000046696E616C50726F6A6563742E737265634F
S11300000C942A000C9447000C9447000C9447006D
S11300100C9447000C9447000C9447000C94470040
S11300200C9447000C9447000C94C7050C948C0561
S11300300C9447000C9447000C9447000C94470020
S11300400C9447000C9447000C9447000C94470010
S11300500C94470011241FBECFE5D8E0DEBFCDBF0E
S113006010E0A0E6B0E0E4E6FCE002C005900D92EA
S1130070AC36B107D9F720E0ACE6B0E001C01D9280
S1130080A238B207E1F70E947F040C9430060C9466
S11300900000823059F0833081F08130A1F487B1BF
S11300A0806487B987B18F7787B90DC087B18F7B9B
S11300B087B987B18F7787B906C087B1806487B95C
S11300C087B1806887B987B18F7D87B986B18F7D05
S11300D086B986B1877F86B986B1816086B986B1D3
S11300E0826086B986B1846086B986B1806886B933
S11300F008958032B0F46115710599F097B1907E3E
S113010097B997B1892B87B986B1806486B9349B36
S1130110FECF86B1806186B984B195B1FB0191832C
S113012080830895843008F07EC0683008F07BC076
S1130130423008F078C0813019F130F08230E1F1BA
S1130140833009F455C00895442319F0413069F00F
S113015008952AB381E090E002C0880F991F6A9540
S1130160E2F7809582238ABB08952AB381E090E068
S113017002C0880F991F6A95E2F7822B8ABB089503
S1130180442319F0413069F0089527B381E090E0E9
S113019002C0880F991F6A95E2F78095822387BB76
S11301A0089527B381E090E002C0880F991F6A95F3
S11301B0E2F7822B87BB0895442319F0413069F09C
S11301C0089524B381E090E002C0880F991F6A95D6
S11301D0E2F78095822384BB089524B381E090E004
S11301E002C0880F991F6A95E2F7822B84BB089599
S11301F0442319F0413069F0089521B381E090E07F
S113020002C0880F991F6A95E2F78095822381BB0B
S1130210089521B381E090E002C0880F991F6A9588
S1130220E2F7822B81BB0895843008F07EC06830E9
S113023008F07BC0423008F078C0813019F130F00A
S11302408230E1F1833009F455C00895442319F054
S1130250413069F008952BB381E090E002C0880F2B
S1130260991F6A95E2F7809582238BBB08952BB37F
S113027081E090E002C0880F991F6A95E2F7822B13
S11302808BBB0895442319F0413069F0089528B3D5
S113029081E090E002C0880F991F6A95E2F780958B
S11302A0822388BB089528B381E090E002C0880FC0
S11302B0991F6A95E2F7822B88BB0895442319F0AD
S11302C0413069F0089525B381E090E002C0880FC1
S11302D0991F6A95E2F78095822385BB089525B31B
S11302E081E090E002C0880F991F6A95E2F7822BA3
S11302F085BB0895442319F0413069F0089522B371
S113030081E090E002C0880F991F6A95E2F780951A
S1130310822382BB089522B381E090E002C0880F5B
S1130320991F6A95E2F7822B82BB08958430C0F549
S11303306830B0F54115510599F1813089F028F004
S11303408230C9F0833011F1089589B390E002C07E
S1130350959587956A95E2F78170FA0180830895EF
S113036086B390E002C0959587956A95E2F781700F
S1130370FA018083089583B390E002C09595879530
S11303806A95E2F78170FA018083089580B390E062
S113039002C0959587956A95E2F78170FA0180838A
S11303A008958430A8F5683098F5813089F028F0F4
S11303B08230C9F0833011F108952BB381E090E0CD
S11303C002C0880F991F6A95E2F782278BBB0895B4
S11303D028B381E090E002C0880F991F6A95E2F784
S11303E0822788BB089525B381E090E002C0880F7E
S11303F0991F6A95E2F7822785BB089522B381E0AD
S113040090E002C0880F991F6A95E2F7822782BBA9
S11304100895813081F028F08230B9F08330F9F00A
S11304200895662319F0613019F008951ABA0895F1
S11304308FEF8ABB0895662319F0613019F008958F
S113044017BA08958FEF87BB0895662319F06130BA
S113045019F0089514BA08958FEF84BB08956623A4
S113046019F0613019F0089511BA08958FEF81BB26
S11304700895813041F028F0823039F0833039F02A
S113048008956BBB089568BB089565BB089562BB6E
S113049008950E94BF020895FF920F931F93CF9374
S11304A0DF936115710511F1413100F5D42F8B01F2
S11304B0F82EC92FC0650E94CE028C2F0E94F10233
S11304C08F2D0E941B03C0E007C0F801EC0FF11D43
S11304D080810E941B03CF5FDC17B8F70E94EA02F9
S11304E081EE94E00197F1F700C00000DF91CF9115
S11304F01F910F91FF900895FF920F931F93CF9335
S1130500DF936115710589F1413178F5D42F8B01A1
S1130510F82EC92FC0650E94CE028C2F0E94F102D2
S11305208F2D0E941B030E94DC028C2F0E94060365
S1130530C0E006C0C8018C0F911D0E942703CF5F45
S11305402C2F30E08D2F90E001972817390794F372
S1130550C8018C0F911D0E9437030E94EA0281EEAC
S113056094E00197F1F700C00000DF91CF911F9153
S11305700F91FF9008958FB780688FBF08958CE026
S113058080B981B18E7F81B981B18D7F81B986B700
S1130590806486BF86B7846086BF089586B780620C
S11305A086BF86B7806886BF06B607FEFDCF81B1D9
S11305B0887F8830E1F7089586B7806286BF86B762
S11305C0806886BF06B607FEFDCF81B1887F803183
S11305D0E1F7089586B7806186BF86B7806886BFD5
S11305E00895882394F0880F83B983B18E7F83B9EB
S11305F086B78F7D86BF86B7806886BF06B607FE3E
S1130600FDCF81B1887F8831E1F70895882394F084
S1130610880F83B983B1816083B986B78F7D86BF24
S113062086B7806886BF06B607FEFDCF81B1887F96
S11306308034E1F7089583B986B7806886BF06B62B
S113064007FEFDCF81B1887F8832E1F70895FC0170
S1130650892B61F096B7906896BF06B607FEFDCF6A
S113066091B1987F9035E1F783B180830895FC01BF
S1130670892B91F096B79F7B96BF96B7906896BFEB
S113068006B607FEFDCF91B1987F9835E1F783B1A7
S1130690808386B7806486BF0895CF93DF9300D0AC
S11306A0CDB7DEB7BE016F5F7F4F81E00E94790056
S11306B029813A81A8E8B3E10E94210620E038E2CA
S11306C040E050E00E94FF05CA01B9010F900F906D
S11306D0DF91CF910895CF93DF9380916C008111C6
S11306E047C0809177008A3030F5C0917700D0E020
S11306F00E944D03C359DF4F6883E0917700F0E017
S1130700E359FF4F80810E944405E0917700F0E0B7
S1130710E359FF4F20818091780090917900820FF6
S1130720911D9093790080937800809177008F5F7A
S1130730809377001DC0109277008AE0EDE6F0E028
S1130740DF011D928A95E9F72091780030917900B4
S1130750ADECBCEC0E9421069695879596958795FD
S11307609695879580936100109279001092780095
S1130770DF91CF910895CF93DF9300D0CDB7DEB74B
S11307801A8219820E943B0541E060E080E00E94E9
S1130790920040E061E080E00E94920041E065E068
S11307A082E00E94920040E064E082E00E949200B5
S11307B040E062E082E00E94920040E063E082E078
S11307C00E94920041E067E082E00E94920081E092
S11307D00E9449000E94BB020E946F0589EF0E949B
S11307E079058BE693E00E9485050E947B050E94B3
S11307F04902909160008DEC989F912D112496955B
S113080096959695998390916000989F812D1124D7
S1130810869586958695880F282F220F220F820FA2
S1130820981B9A8342E0BE016F5F7F4F80E090E0A7
S11308300E944C020F900F90DF91CF91089541E0F8
S113084065E082E00E94140167E082E00E94D10129
S11308502FE38DE093E0215080409040E1F700C009
S11308600000089540E065E082E00E9414010895CC
S113087041E060E080E00E94140141E067E082E032
S11308800E941401089540E060E080E00E94140199
S1130890089580917700811125C090916100809125
S11308A06000981728F40E941F040E9443040895CE
S11308B09091610080916000891728F40E943804A7
S11308C00E94320408959091610080916000981311
S11308D009C040E067E082E00E9414010E943204F3
S11308E00E94430408950E9443040E94320440E09D
S11308F067E082E00E9414010E9466050895CF9388
S1130900DF9300D000D01F92CDB7DEB71D821C82CA
S11309100E94BB0300E010E011115AC00E94490478
S1130920AE014F5F5F4F64E082E00E949601AE012A
S11309304E5F5F4F62E082E00E9496018A818130BF
S113094041F09981913029F090916C00913009F037
S11309503FC090916C009130D1F49981913059F459
S113096090916000943238F08091600085508093BB
S1130970600000E00CC0813051F4809160008B3441
S113098030F4809160008B5F8093600000E081E030
S113099080936C00809160000E9444052FE38DE0F9
S11309A093E0215080409040E1F700C000000E9495
S11309B066052FE38DE093E0215080409040E1F7FD
S11309C000C000000F5F053019F410926C0000E0C5
S11309D0AE014D5F5F4F63E082E00E9496018B8120
S11309E0813001F51130A1F41D821C8242E0BE0168
S11309F06C5F7F4F80E090E00E947C028C819D813F
S1130A00880F282F220F220F820F890F80936000F6
S1130A1081E0182707C0AE014D5F5F4F63E082E0BD
S1130A200E9496018B818130B1F310FF75CF0E9433
S1130A307304909160008DEC989F912D11249695EC
S1130A40969596959C8390916000989F812D112492
S1130A50869586958695880F282F220F220F820F60
S1130A60981B9D8342E0BE016C5F7F4F80E090E065
S1130A700E944C0251CF61E081E00E94090261E0D2
S1130A8083E00E9409020895CF93EDEC8E9FE12D3F
S1130A901124CE2FC695C695C6952C2F220F922FC2
S1130AA0990F990F920F891BE82FF0E0EE59FF4F31
S1130AB0608183E00E943902EC2FF0E0EE59FF4F91
S1130AC0608181E00E943902CF9108956FEF83E045
S1130AD00E9439026FEF81E00E943902089583B7C2
S1130AE08F7B83BF83B7886083BF89B7826089BFE8
S1130AF008958CBF089583B7816083BF83B78260F4
S1130B0083BF83B78B7F83BF0895009721F09093B1
S1130B107F0080937E0008951F920F920FB60F926C
S1130B2011242F933F934F935F936F937F938F93EE
S1130B309F93AF93BF93EF93FF9380917C00909129
S1130B407D00019690937D0080937C00813D9340CD
S1130B5069F481E782BF10927D0010927C00E091DD
S1130B608000F0918100309709F00995FF91EF9191
S1130B70BF91AF919F918F917F916F915F914F91B1
S1130B803F912F910F900FBE0F901F9018951F92B9
S1130B900F920FB60F9211242F933F934F935F93AD
S1130BA06F937F938F939F93AF93BF93EF93FF9331
S1130BB080917A0090917B00019690937B008093C2
S1130BC07A00499759F410927B0010927A00E091D0
S1130BD07E00F0917F00309709F00995FF91EF9125
S1130BE0BF91AF919F918F917F916F915F914F9141
S1130BF03F912F910F900FBE0F901F901895A1E277
S1130C001A2EAA1BBB1BFD010DC0AA1FBB1FEE1F82
S1130C10FF1FA217B307E407F50720F0A21BB30BCD
S1130C20E40BF50B661F771F881F991F1A9469F749
S1130C3060957095809590959B01AC01BD01CF01A5
S1130C400895A29FB001B39FC001A39F700D811DA1
S1130C501124911DB29F700D811D1124911D0895C1
S1070C60F894FFCF32
S10F0C643C3C4079243019120278001046
S9030000FC
